{
  "contractName": "SimpleStorage",
  "abi": [
    {
      "constant": true,
      "inputs": [],
      "name": "value",
      "outputs": [
        {
          "name": "",
          "type": "uint256"
        }
      ],
      "payable": false,
      "stateMutability": "view",
      "type": "function"
    },
    {
      "anonymous": false,
      "inputs": [
        {
          "indexed": false,
          "name": "newValue",
          "type": "uint256"
        }
      ],
      "name": "ValueChanged",
      "type": "event"
    },
    {
      "constant": false,
      "inputs": [
        {
          "name": "_value",
          "type": "uint256"
        }
      ],
      "name": "setValue",
      "outputs": [],
      "payable": false,
      "stateMutability": "nonpayable",
      "type": "function"
    }
  ],
  "bytecode": "0x608060405234801561001057600080fd5b50610106806100206000396000f3fe60806040526004361060485763ffffffff7c01000000000000000000000000000000000000000000000000000000006000350416633fa4f2458114604d57806355241077146071575b600080fd5b348015605857600080fd5b50605f6099565b60408051918252519081900360200190f35b348015607c57600080fd5b50609760048036036020811015609157600080fd5b5035609f565b005b60005481565b60008190556040805182815290517f93fe6d397c74fdf1402a8b72e47b68512f0510d7b98a4bc4cbdf6ac7108b3c599181900360200190a15056fea165627a7a72305820a211333876137cba519aed388da4c6b618fbc6f4a49b14f63f2e80309ddc21240029",
  "source": "// SPDX-License-Identifier: MIT\npragma solidity ^0.5.0;\n\ncontract SimpleStorage {\n    event ValueChanged(uint256 newValue);\n\n    uint256 public value;\n\n    function setValue(uint256 _value) public {\n        value = _value;\n        emit ValueChanged(_value);\n    }\n}\n",
  "sourcePath": "/Users/loveyvish/Documents/Blockchain/Ethereum/eth-todo-list/contracts/EventEmitter.sol",
  "compiler": {
    "name": "solc",
    "version": "0.5.0+commit.1d4f565a.Emscripten.clang"
  },
  "schemaVersion": "3.0.1",
  "updatedAt": "2024-08-15T19:39:59.615Z",
  "devdoc": {
    "methods": {}
  },
  "userdoc": {
    "methods": {}
  }
}