{
  "contractName": "TodoList",
  "abi": [
    {
      "constant": true,
      "inputs": [],
      "name": "value",
      "outputs": [
        {
          "name": "",
          "type": "uint256"
        }
      ],
      "payable": false,
      "stateMutability": "view",
      "type": "function",
      "signature": "0x3fa4f245"
    },
    {
      "constant": true,
      "inputs": [
        {
          "name": "",
          "type": "uint256"
        }
      ],
      "name": "tasks",
      "outputs": [
        {
          "name": "id",
          "type": "uint256"
        },
        {
          "name": "content",
          "type": "string"
        },
        {
          "name": "completed",
          "type": "bool"
        }
      ],
      "payable": false,
      "stateMutability": "view",
      "type": "function",
      "signature": "0x8d977672"
    },
    {
      "constant": true,
      "inputs": [],
      "name": "taskCount",
      "outputs": [
        {
          "name": "",
          "type": "uint256"
        }
      ],
      "payable": false,
      "stateMutability": "view",
      "type": "function",
      "signature": "0xb6cb58a5"
    },
    {
      "inputs": [],
      "payable": false,
      "stateMutability": "nonpayable",
      "type": "constructor",
      "signature": "constructor"
    },
    {
      "anonymous": false,
      "inputs": [
        {
          "indexed": false,
          "name": "id",
          "type": "uint256"
        },
        {
          "indexed": false,
          "name": "content",
          "type": "string"
        },
        {
          "indexed": false,
          "name": "completed",
          "type": "bool"
        }
      ],
      "name": "TaskCreated",
      "type": "event",
      "signature": "0x05d0fb833127fc08168556d0e7ca9554fc3f6bc843b3b7d2bf1c35aea6bab660"
    },
    {
      "anonymous": false,
      "inputs": [
        {
          "indexed": false,
          "name": "newValue",
          "type": "uint256"
        }
      ],
      "name": "ValueChanged",
      "type": "event",
      "signature": "0x93fe6d397c74fdf1402a8b72e47b68512f0510d7b98a4bc4cbdf6ac7108b3c59"
    },
    {
      "constant": false,
      "inputs": [
        {
          "name": "_content",
          "type": "string"
        }
      ],
      "name": "createTask",
      "outputs": [],
      "payable": false,
      "stateMutability": "nonpayable",
      "type": "function",
      "signature": "0x111002aa"
    },
    {
      "constant": true,
      "inputs": [],
      "name": "getTaskCount",
      "outputs": [
        {
          "name": "count",
          "type": "uint256"
        }
      ],
      "payable": false,
      "stateMutability": "view",
      "type": "function",
      "signature": "0xc17a340e"
    },
    {
      "constant": false,
      "inputs": [
        {
          "name": "_value",
          "type": "uint256"
        }
      ],
      "name": "setValue",
      "outputs": [],
      "payable": false,
      "stateMutability": "nonpayable",
      "type": "function",
      "signature": "0x55241077"
    }
  ],
  "bytecode": "0x60806040526000805534801561001457600080fd5b5060408051808201909152600c81527f44656661756c74207461736b0000000000000000000000000000000000000000602082015261005b906401000000006100a6810204565b60408051808201909152600681527f5461736b2031000000000000000000000000000000000000000000000000000060208201526100a1906401000000006100a6810204565b610265565b60008054600190810180835560408051606081018252828152602080820187815282840187905293865284815291909420845181559151805192936100f3939085019291909101906101ca565b5060408201518160020160006101000a81548160ff0219169083151502179055509050507f05d0fb833127fc08168556d0e7ca9554fc3f6bc843b3b7d2bf1c35aea6bab660600054826000604051808481526020018060200183151515158152602001828103825284818151815260200191508051906020019080838360005b8381101561018b578181015183820152602001610173565b50505050905090810190601f1680156101b85780820380516001836020036101000a031916815260200191505b5094505050505060405180910390a150565b828054600181600116156101000203166002900490600052602060002090601f016020900481019282601f1061020b57805160ff1916838001178555610238565b82800160010185558215610238579182015b8281111561023857825182559160200191906001019061021d565b50610244929150610248565b5090565b61026291905b80821115610244576000815560010161024e565b90565b610545806102746000396000f3fe6080604052600436106100775763ffffffff7c0100000000000000000000000000000000000000000000000000000000600035041663111002aa811461007c5780633fa4f2451461013157806355241077146101585780638d97767214610182578063b6cb58a514610236578063c17a340e1461024b575b600080fd5b34801561008857600080fd5b5061012f6004803603602081101561009f57600080fd5b8101906020810181356401000000008111156100ba57600080fd5b8201836020820111156100cc57600080fd5b803590602001918460018302840111640100000000831117156100ee57600080fd5b91908080601f016020809104026020016040519081016040528093929190818152602001838380828437600092019190915250929550610260945050505050565b005b34801561013d57600080fd5b50610146610384565b60408051918252519081900360200190f35b34801561016457600080fd5b5061012f6004803603602081101561017b57600080fd5b503561038a565b34801561018e57600080fd5b506101ac600480360360208110156101a557600080fd5b50356103c5565b604051808481526020018060200183151515158152602001828103825284818151815260200191508051906020019080838360005b838110156101f95781810151838201526020016101e1565b50505050905090810190601f1680156102265780820380516001836020036101000a031916815260200191505b5094505050505060405180910390f35b34801561024257600080fd5b50610146610474565b34801561025757600080fd5b5061014661047a565b60008054600190810180835560408051606081018252828152602080820187815282840187905293865284815291909420845181559151805192936102ad93908501929190910190610481565b5060408201518160020160006101000a81548160ff0219169083151502179055509050507f05d0fb833127fc08168556d0e7ca9554fc3f6bc843b3b7d2bf1c35aea6bab660600054826000604051808481526020018060200183151515158152602001828103825284818151815260200191508051906020019080838360005b8381101561034557818101518382015260200161032d565b50505050905090810190601f1680156103725780820380516001836020036101000a031916815260200191505b5094505050505060405180910390a150565b60025481565b60028190556040805182815290517f93fe6d397c74fdf1402a8b72e47b68512f0510d7b98a4bc4cbdf6ac7108b3c599181900360200190a150565b600160208181526000928352604092839020805481840180548651600296821615610100026000190190911695909504601f810185900485028601850190965285855290949193929091908301828280156104615780601f1061043657610100808354040283529160200191610461565b820191906000526020600020905b81548152906001019060200180831161044457829003601f168201915b5050506002909301549192505060ff1683565b60005481565b6000545b90565b828054600181600116156101000203166002900490600052602060002090601f016020900481019282601f106104c257805160ff19168380011785556104ef565b828001600101855582156104ef579182015b828111156104ef5782518255916020019190600101906104d4565b506104fb9291506104ff565b5090565b61047e91905b808211156104fb576000815560010161050556fea165627a7a72305820536af88d7cc663cb1858ab164ab6a450e47a94c9422f9cb1371c9fdebc8087f70029",
  "source": "pragma solidity ^0.5.0;\n\ncontract TodoList\n{\n    uint public taskCount = 0;\n    struct Task {\n        uint id;\n        string content;\n        bool completed;\n    }\n\n    mapping(uint=>Task) public  tasks;\n\n    event TaskCreated(\n        uint id,\n        string content,\n        bool completed\n    );\n    \n    event ValueChanged(uint256 newValue);\n    uint256 public value;\n\n    constructor() public{\n        createTask(\"Default task\");\n        createTask(\"Task 1\");\n    }\n\n    function createTask(string memory _content) public{\n        taskCount++;\n        tasks[taskCount] = Task(taskCount,_content,false);\n        emit TaskCreated((taskCount), _content, false); \n    }\n\n    function getTaskCount() public view returns(uint count){\n        return taskCount;\n    }\n\n    function setValue(uint256 _value) public {\n        value = _value;\n        emit ValueChanged(_value);\n    }\n\n}",
  "sourcePath": "/Users/loveyvish/Documents/Blockchain/Ethereum/eth-todo-list/contracts/TodoList.sol",
  "compiler": {
    "name": "solc",
    "version": "0.5.0+commit.1d4f565a.Emscripten.clang"
  },
  "schemaVersion": "3.0.1",
  "updatedAt": "2024-08-16T07:27:44.712Z",
  "devdoc": {
    "methods": {}
  },
  "userdoc": {
    "methods": {}
  }
}